{
  "_format": "hh-sol-artifact-1",
  "contractName": "DeFi",
  "sourceName": "contracts/CroudFunding.sol",
  "abi": [
    {
      "inputs": [
        {
          "internalType": "address",
          "name": "_commonWallet",
          "type": "address"
        },
        {
          "internalType": "address",
          "name": "_investmentWallet",
          "type": "address"
        }
      ],
      "stateMutability": "nonpayable",
      "type": "constructor"
    },
    {
      "anonymous": false,
      "inputs": [
        {
          "indexed": true,
          "internalType": "address",
          "name": "borrower",
          "type": "address"
        },
        {
          "indexed": false,
          "internalType": "uint256",
          "name": "amount",
          "type": "uint256"
        }
      ],
      "name": "EMIPaid",
      "type": "event"
    },
    {
      "anonymous": false,
      "inputs": [
        {
          "indexed": true,
          "internalType": "address",
          "name": "user",
          "type": "address"
        },
        {
          "indexed": false,
          "internalType": "uint256",
          "name": "amount",
          "type": "uint256"
        }
      ],
      "name": "EtherMortgaged",
      "type": "event"
    },
    {
      "anonymous": false,
      "inputs": [
        {
          "indexed": true,
          "internalType": "address",
          "name": "user",
          "type": "address"
        },
        {
          "indexed": false,
          "internalType": "uint256",
          "name": "amount",
          "type": "uint256"
        }
      ],
      "name": "EtherWithdrawn",
      "type": "event"
    },
    {
      "anonymous": false,
      "inputs": [
        {
          "indexed": true,
          "internalType": "address",
          "name": "investor",
          "type": "address"
        },
        {
          "indexed": false,
          "internalType": "uint256",
          "name": "amount",
          "type": "uint256"
        }
      ],
      "name": "InvestmentMade",
      "type": "event"
    },
    {
      "anonymous": false,
      "inputs": [
        {
          "indexed": true,
          "internalType": "address",
          "name": "previousOwner",
          "type": "address"
        },
        {
          "indexed": true,
          "internalType": "address",
          "name": "newOwner",
          "type": "address"
        }
      ],
      "name": "OwnershipTransferred",
      "type": "event"
    },
    {
      "inputs": [],
      "name": "borrowerInterestRate",
      "outputs": [
        {
          "internalType": "uint256",
          "name": "",
          "type": "uint256"
        }
      ],
      "stateMutability": "view",
      "type": "function"
    },
    {
      "inputs": [],
      "name": "commonWallet",
      "outputs": [
        {
          "internalType": "address",
          "name": "",
          "type": "address"
        }
      ],
      "stateMutability": "view",
      "type": "function"
    },
    {
      "inputs": [],
      "name": "ethToUsd",
      "outputs": [
        {
          "internalType": "uint256",
          "name": "",
          "type": "uint256"
        }
      ],
      "stateMutability": "view",
      "type": "function"
    },
    {
      "inputs": [],
      "name": "invest",
      "outputs": [],
      "stateMutability": "payable",
      "type": "function"
    },
    {
      "inputs": [],
      "name": "investmentWallet",
      "outputs": [
        {
          "internalType": "address",
          "name": "",
          "type": "address"
        }
      ],
      "stateMutability": "view",
      "type": "function"
    },
    {
      "inputs": [
        {
          "internalType": "address",
          "name": "",
          "type": "address"
        }
      ],
      "name": "investments",
      "outputs": [
        {
          "internalType": "address",
          "name": "investor",
          "type": "address"
        },
        {
          "internalType": "uint256",
          "name": "amount",
          "type": "uint256"
        }
      ],
      "stateMutability": "view",
      "type": "function"
    },
    {
      "inputs": [],
      "name": "lenderInterestRate",
      "outputs": [
        {
          "internalType": "uint256",
          "name": "",
          "type": "uint256"
        }
      ],
      "stateMutability": "view",
      "type": "function"
    },
    {
      "inputs": [],
      "name": "loanToValueRatio",
      "outputs": [
        {
          "internalType": "uint256",
          "name": "",
          "type": "uint256"
        }
      ],
      "stateMutability": "view",
      "type": "function"
    },
    {
      "inputs": [],
      "name": "mortgageEther",
      "outputs": [],
      "stateMutability": "payable",
      "type": "function"
    },
    {
      "inputs": [],
      "name": "owner",
      "outputs": [
        {
          "internalType": "address",
          "name": "",
          "type": "address"
        }
      ],
      "stateMutability": "view",
      "type": "function"
    },
    {
      "inputs": [
        {
          "internalType": "uint256",
          "name": "amount",
          "type": "uint256"
        }
      ],
      "name": "payEMI",
      "outputs": [],
      "stateMutability": "nonpayable",
      "type": "function"
    },
    {
      "inputs": [],
      "name": "penaltyRate",
      "outputs": [
        {
          "internalType": "uint256",
          "name": "",
          "type": "uint256"
        }
      ],
      "stateMutability": "view",
      "type": "function"
    },
    {
      "inputs": [],
      "name": "renounceOwnership",
      "outputs": [],
      "stateMutability": "nonpayable",
      "type": "function"
    },
    {
      "inputs": [
        {
          "internalType": "address",
          "name": "newOwner",
          "type": "address"
        }
      ],
      "name": "transferOwnership",
      "outputs": [],
      "stateMutability": "nonpayable",
      "type": "function"
    },
    {
      "inputs": [
        {
          "internalType": "address",
          "name": "",
          "type": "address"
        }
      ],
      "name": "users",
      "outputs": [
        {
          "internalType": "uint256",
          "name": "ethBalance",
          "type": "uint256"
        },
        {
          "internalType": "uint256",
          "name": "usdBalance",
          "type": "uint256"
        },
        {
          "internalType": "uint256",
          "name": "mortgagedEth",
          "type": "uint256"
        },
        {
          "internalType": "uint256",
          "name": "lastPaymentTimestamp",
          "type": "uint256"
        }
      ],
      "stateMutability": "view",
      "type": "function"
    },
    {
      "inputs": [
        {
          "internalType": "uint256",
          "name": "amount",
          "type": "uint256"
        }
      ],
      "name": "withdrawFunds",
      "outputs": [],
      "stateMutability": "nonpayable",
      "type": "function"
    }
  ],
  "bytecode": "0x608060405234801561001057600080fd5b50604051610b6e380380610b6e83398101604081905261002f916100d5565b61003833610069565b600380546001600160a01b039384166001600160a01b03199182161790915560048054929093169116179055610108565b600080546001600160a01b038381166001600160a01b0319831681178455604051919092169283917f8be0079c531659141344cd1fd0a4f28419497f9722a3daafe3b4186f6b6457e09190a35050565b80516001600160a01b03811681146100d057600080fd5b919050565b600080604083850312156100e857600080fd5b6100f1836100b9565b91506100ff602084016100b9565b90509250929050565b610a57806101176000396000f3fe6080604052600436106100f35760003560e01c806396b988621161008a578063d6b7494f11610059578063d6b7494f14610157578063e8b5e51f146102ef578063ede80c58146102f7578063f2fde38b146102ff57600080fd5b806396b98862146101f7578063a87430ba14610256578063ab4766e8146102b9578063b6fa37bc146102cf57600080fd5b8063715018a6116100c6578063715018a61461016c578063733706001461018157806378c40aea146101a15780638da5cb5b146101d957600080fd5b8063075d358a146100f8578063155dd5ee14610120578063157bf470146101425780636e2f203b14610157575b600080fd5b34801561010457600080fd5b5061010d605081565b6040519081526020015b60405180910390f35b34801561012c57600080fd5b5061014061013b366004610963565b61031f565b005b34801561014e57600080fd5b5061010d600681565b34801561016357600080fd5b5061010d600781565b34801561017857600080fd5b506101406103b9565b34801561018d57600080fd5b5061014061019c366004610963565b6103cd565b3480156101ad57600080fd5b506003546101c1906001600160a01b031681565b6040516001600160a01b039091168152602001610117565b3480156101e557600080fd5b506000546001600160a01b03166101c1565b34801561020357600080fd5b5061023761021236600461097c565b600260205260009081526040902080546001909101546001600160a01b039091169082565b604080516001600160a01b039093168352602083019190915201610117565b34801561026257600080fd5b5061029961027136600461097c565b6001602081905260009182526040909120805491810154600282015460039092015490919084565b604080519485526020850193909352918301526060820152608001610117565b3480156102c557600080fd5b5061010d610fa081565b3480156102db57600080fd5b506004546101c1906001600160a01b031681565b610140610594565b6101406106a0565b34801561030b57600080fd5b5061014061031a36600461097c565b6107e6565b61032761085f565b4781111561037c5760405162461bcd60e51b815260206004820152601d60248201527f496e73756666696369656e7420636f6e74726163742062616c616e636500000060448201526064015b60405180910390fd5b600080546040516001600160a01b039091169183156108fc02918491818181858888f193505050501580156103b5573d6000803e3d6000fd5b5050565b6103c161085f565b6103cb60006108b9565b565b600081116104275760405162461bcd60e51b815260206004820152602160248201527f454d4920616d6f756e74206d7573742062652067726561746572207468616e206044820152600360fc1b6064820152608401610373565b336000908152600160208190526040909120015481111561048a5760405162461bcd60e51b815260206004820152601860248201527f496e73756666696369656e74205553442062616c616e636500000000000000006044820152606401610373565b600061049582610909565b336000908152600160208190526040822001805492935084929091906104bc9084906109c2565b9091555050600080546040516001600160a01b039091169183156108fc02918491818181858888f193505050501580156104fa573d6000803e3d6000fd5b503360009081526001602052604090206003015461051b9062278d006109d5565b421061055a57600061052f83610fa061094b565b336000908152600160205260408120805492935083929091906105539084906109d5565b9091555050505b60405182815233907f02d00da62a666d159ac7383eb46211fbb2a4d3a76fcd713aea679a1bc9e462a3906020015b60405180910390a25050565b600034116105f55760405162461bcd60e51b815260206004820152602860248201527f496e766573746d656e7420616d6f756e74206d75737420626520677265617465604482015267072207468616e20360c41b6064820152608401610373565b33600081815260026020526040812080546001600160a01b03191690921782556001909101805434929061062a9084906109d5565b90915550506004546040516001600160a01b03909116903480156108fc02916000818181858888f19350505050158015610668573d6000803e3d6000fd5b5060405134815233907f07146ef3ff2146eaf34fa4d392d4c56663333b682654b3123bf270f9ec529f319060200160405180910390a2565b600034116106ff5760405162461bcd60e51b815260206004820152602660248201527f4d6f72746761676520616d6f756e74206d75737420626520677265617465722060448201526507468616e20360d41b6064820152608401610373565b600061070d34610fa0610957565b905060006107276050610721346064610957565b9061094b565b3360009081526001602081905260408220018054929350849290919061074e9084906109d5565b909155505033600090815260016020526040812060020180548392906107759084906109d5565b90915550506003546040516001600160a01b03909116903480156108fc02916000818181858888f193505050501580156107b3573d6000803e3d6000fd5b5060405134815233907f3b34c6cf525776d5f732260f37c3adf44f04895cc561b62cb62f1be31e6d48cb90602001610588565b6107ee61085f565b6001600160a01b0381166108535760405162461bcd60e51b815260206004820152602660248201527f4f776e61626c653a206e6577206f776e657220697320746865207a65726f206160448201526564647265737360d01b6064820152608401610373565b61085c816108b9565b50565b6000546001600160a01b031633146103cb5760405162461bcd60e51b815260206004820181905260248201527f4f776e61626c653a2063616c6c6572206973206e6f7420746865206f776e65726044820152606401610373565b600080546001600160a01b038381166001600160a01b0319831681178455604051919092169283917f8be0079c531659141344cd1fd0a4f28419497f9722a3daafe3b4186f6b6457e09190a35050565b33600090815260016020526040812060030154819061092b9062278d006109d5565b421115610945576109426064610721856007610957565b90505b92915050565b600061094282846109e8565b60006109428284610a0a565b60006020828403121561097557600080fd5b5035919050565b60006020828403121561098e57600080fd5b81356001600160a01b03811681146109a557600080fd5b9392505050565b634e487b7160e01b600052601160045260246000fd5b81810381811115610945576109456109ac565b80820180821115610945576109456109ac565b600082610a0557634e487b7160e01b600052601260045260246000fd5b500490565b8082028115828204841417610945576109456109ac56fea2646970667358221220571b054d26f51f89f5dc1527f29902fbff9bf3ff9edbfe0adcbe620b114160fe64736f6c63430008110033",
  "linkReferences": {},
  "deployedLinkReferences": {}
}